{
  "contractName": "DinoFactory",
  "abi": [
    {
      "constant": true,
      "inputs": [
        {
          "internalType": "uint256",
          "name": "",
          "type": "uint256"
        }
      ],
      "name": "dinos",
      "outputs": [
        {
          "internalType": "string",
          "name": "name",
          "type": "string"
        },
        {
          "internalType": "uint256",
          "name": "dna",
          "type": "uint256"
        }
      ],
      "payable": false,
      "stateMutability": "view",
      "type": "function"
    },
    {
      "constant": false,
      "inputs": [
        {
          "internalType": "string",
          "name": "_name",
          "type": "string"
        }
      ],
      "name": "createRandomDino",
      "outputs": [],
      "payable": false,
      "stateMutability": "nonpayable",
      "type": "function"
    }
  ],
  "bytecode": "0x60806040526010600055600054600a0a60015534801561001e57600080fd5b506104608061002e6000396000f3fe608060405234801561001057600080fd5b50600436106100365760003560e01c80632e2cddc11461003b5780639a29969d146100f6575b600080fd5b6100f46004803603602081101561005157600080fd5b810190808035906020019064010000000081111561006e57600080fd5b82018360208201111561008057600080fd5b803590602001918460018302840111640100000000831117156100a257600080fd5b91908080601f016020809104026020016040519081016040528093929190818152602001838380828437600081840152601f19601f8201169050808301925050505050505091929192905050506101a4565b005b6101226004803603602081101561010c57600080fd5b81019080803590602001909291905050506101bf565b6040518080602001838152602001828103825284818151815260200191508051906020019080838360005b8381101561016857808201518184015260208101905061014d565b50505050905090810190601f1680156101955780820380516001836020036101000a031916815260200191505b50935050505060405180910390f35b60006101af82610288565b90506101bb8282610316565b5050565b600281815481106101cc57fe5b9060005260206000209060020201600091509050806000018054600181600116156101000203166002900480601f0160208091040260200160405190810160405280929190818152602001828054600181600116156101000203166002900480156102785780601f1061024d57610100808354040283529160200191610278565b820191906000526020600020905b81548152906001019060200180831161025b57829003601f168201915b5050505050908060010154905082565b600080826040516020018082805190602001908083835b602083106102c2578051825260208201915060208101905060208303925061029f565b6001836020036101000a0380198251168184511680821785525050505050509050019150506040516020818303038152906040528051906020012060001c9050600154818161030d57fe5b06915050919050565b6002604051806040016040528084815260200183815250908060018154018082558091505090600182039060005260206000209060020201600090919290919091506000820151816000019080519060200190610374929190610386565b50602082015181600101555050505050565b828054600181600116156101000203166002900490600052602060002090601f016020900481019282601f106103c757805160ff19168380011785556103f5565b828001600101855582156103f5579182015b828111156103f45782518255916020019190600101906103d9565b5b5090506104029190610406565b5090565b61042891905b8082111561042457600081600090555060010161040c565b5090565b9056fea265627a7a723158209958f95be661aed1842b747a83cca922267b51f61eea9865b6ce3740c0c0d90e64736f6c63430005100032",
  "source": "pragma solidity ^0.5.0;\n\ncontract DinoFactory {\n\n    // declare our event here\n\n    uint dnaDigits = 16;\n    uint dnaModulus = 10 ** dnaDigits;\n\n    struct Dino {\n        string name;\n        uint dna;\n    }\n\n    Dino[] public dinos;\n\n    function _createDino(string memory _name, uint _dna) private {\n        dinos.push(Dino(_name, _dna));\n        // and fire it here\n    } \n\n    function _generateRandomDna(string memory _str) private view returns (uint) {\n        uint rand = uint(keccak256(abi.encodePacked(_str)));\n        return rand % dnaModulus;\n    }\n\n    function createRandomDino(string memory _name) public {\n        uint randDna = _generateRandomDna(_name);\n        _createDino(_name, randDna);\n    }\n\n}\n",
  "sourcePath": "/Users/jayshree/code/side-projects/likelib/dino-hunt/contracts/DinoFactory.sol",
  "compiler": {
    "name": "solc",
    "version": "0.5.16+commit.9c3226ce.Emscripten.clang"
  },
  "schemaVersion": "3.2.3",
  "updatedAt": "2020-07-25T18:16:37.550Z",
  "devdoc": {
    "methods": {}
  },
  "userdoc": {
    "methods": {}
  }
}